:100000000C946A000C9492000C9492000C94920050
:100010000C9492000C9492000C9492000C94920018
:100020000C9492000C9492000C9492000C94920008
:100030000C9492000C9492000C9492000C949200F8
:100040000C94F9060C9492000C9492000C9492007B
:100050000C9492000C9492000C9492000C949200D8
:100060000C9492000C94920007084809E009700A69
:10007000000B8F0BD70C230E00000000250028007A
:100080002B000000000023002600290004040404C3
:100090000404040402020202020203030303030332
:1000A000010204081020408001020408102001020F
:1000B00004081020000000080002010000030407EB
:1000C00000000000000000000000000024002700E5
:1000D0002A00DC0E11241FBECFEFD8E0DEBFCDBF5B
:1000E00011E0A0E0B1E0E4EAF3E202C005900D9275
:1000F000AE3CB107D9F722E0AEECB1E001C01D92F1
:10010000AA34B207E1F710E0CAE6D0E004C02197B4
:10011000FE010E94A811C936D107C9F70E94430702
:100120000C94D0110C940000CF92DF92EF92FF92CA
:100130000F931F93CF93DF936C017A018B01C0E083
:10014000D0E0CE15DF0581F0D8016D918D01D6018B
:10015000ED91FC910190F081E02DC6010995892B6C
:1001600011F02196EECF7E01C701DF91CF911F9153
:100170000F91FF90EF90DF90CF900895089580E069
:1001800090E00895CF93DF93EC0160E08E810E94B0
:10019000340561E08E810E94340560E08E810E940A
:1001A00034058BE891E00197F1F7DF91CF91089545
:1001B000862F642F0C942D068091080190910901DF
:1001C000019709F05BC08091ED019091EE012091C3
:1001D000E9013091EA01009791F42115310579F494
:1001E0004091E201442359F01092E8011092E70196
:1001F0001092E6011092E50160E070E013C021303A
:100200003105B9F48091E2018823C1F13093E8010E
:100210002093E7011092E6011092E5016091E3015D
:100220007091E4018AE00E94690660E070E08BE072
:1002300023C08130910511F52091E2012223F1F0D4
:100240001092E8011092E7019093E6018093E50196
:100250002091EB013091EC014FEF429FC001439F91
:10026000900D112464E670E00E9494118BE00E94CE
:10027000690660E070E08AE00C94690608958F9248
:100280009F92AF92BF92CF92DF92EF92FF92C09077
:10029000DE01D090DF01E090E001F090E10180907C
:1002A000DA019090DB01A090DC01B090DD01A501A6
:1002B0009401C701B6010E94510F209100013091B5
:1002C000010140910201509103010E9422110E94FC
:1002D0003510663971052CF47093D9016093D801FB
:1002E00006C086E990E09093D9018093D801A501DA
:1002F0009401C701B6010E94520F20910401309170
:10030000050140910601509107010E9422110E94AF
:1003100035107093D7016093D6016F3F71053CF0A3
:100320008FEF90E09093D9018093D80109C0693391
:10033000710534F488E390E09093D7018093D6015F
:10034000A5019401C701B6010E941D111816FCF405
:1003500080910801909109018130910509F04FC009
:100360002091E201211143C09093E8018093E701BD
:100370001092E6011092E5016091D8017091D901C7
:100380008AE00E94690660E070E08BE026C0A5016B
:100390009401C701B6010E94BE0F87FF30C0809153
:1003A000080190910901019751F58091E2018111B5
:1003B00026C01092E8011092E70181E090E090934E
:1003C000E6018093E5016091D6017091D7018BE041
:1003D0000E94690660E070E08AE0FF90EF90DF9095
:1003E000CF90BF90AF909F908F900C946906A5011D
:1003F0009401C701B6010E94BE0F87FDD6CFFF90C2
:10040000EF90DF90CF90BF90AF909F908F90089526
:100410000E94CB11FC0181850E940B0521E0892BF4
:1004200009F420E0822F089589E092E00C949F0364
:1004300087E192E00C949F0383E392E00C949F0386
:1004400085E292E00C949F0383E392E00E94BD0357
:1004500085E292E00E94BD0387E192E00E94BD0325
:1004600089E092E00C94BD03AF92BF92CF92DF92ED
:10047000EF92FF920F931F93CF93DF938091080128
:10048000909109018130910509F042C00E94ED066A
:10049000DC01CB019C01AD0160E070E080E090E008
:1004A000A090CE01B090CF01C090D001D090D101EA
:1004B000E090D201F090D3010091D4011091D501C8
:1004C0000E94AE11233F3140410551056105710580
:1004D0008105910569F160F10E94ED06DC01CB0117
:1004E0008093CE019093CF01A093D001B093D1011E
:1004F0001092D2011092D3011092D4011092D50122
:1005000089E00E940B0561E0892B29F060E003C0BF
:10051000892B71F461E089E0DF91CF911F910F91F8
:10052000FF90EF90DF90CF90BF90AF900C94340588
:10053000DF91CF911F910F91FF90EF90DF90CF90BF
:10054000BF90AF900895CF92DF92EF92FF920F93FA
:100550001F93CF93DF936C017C0187E0E80EF11CC1
:10056000C0E0D0E0062F10E0B8010C2E02C0759557
:1005700067950A94E2F76170F70181917F010E940B
:1005800034052196C430D10579F7C601DF91CF91AA
:100590001F910F91FF90EF90DF90CF900C94C200CD
:1005A000CF92DF92EF92FF920F931F93CF93DF933F
:1005B000EC01F62E642F8C810E9434058D818F3FD3
:1005C00019F060E00E9434058F850F2D10E084FF44
:1005D00025C06E0187E0C80ED11CE12CF12CB801BA
:1005E0000E2C02C0759567950A94E2F76170F601CA
:1005F00081916F010E943405FFEFEF1AFF0A88E036
:10060000E816F10461F7CE01DF91CF911F910F91B0
:10061000FF90EF90DF90CF900C94C200B80184E07F
:10062000759567958A95E1F7CE010E94A3026F2D1B
:10063000CE01DF91CF911F910F91FF90EF90DF904E
:10064000CF900C94A30241E00E94D00281E090E0A0
:10065000089540E0682F81EF91E00C94D00200975C
:1006600069F0FC0101900020E9F73197AF01481BC8
:10067000590BBC0181EF91E00C94940080E090E074
:1006800008958F929F92AF92BF920F931F93CF9333
:10069000DF93CDB7DEB7A1970FB6F894DEBF0FBEDC
:1006A000CDBF19A2423008F44AE08E010F5D1F4F02
:1006B000842E912CA12CB12CA50194010E942F0F06
:1006C000E62FB901CA0101501109EA3014F4E05DC6
:1006D00001C0E95CD801EC93232B242B252B61F777
:1006E000C8010E942F03A1960FB6F894DEBF0FBE7B
:1006F000CDBFDF91CF911F910F91BF90AF909F9091
:100700008F90089581E00E9429038BE39FE1019778
:10071000F1F70895CF93DF93EC01698718860E9463
:100720000A02882319F08885836088870E94ED0675
:100730006A837B838C839D83DF91CF910895FC0135
:10074000808580FD04C082FB882780F9089580E0C1
:1007500008950C942F03643008F063E09091040234
:10076000691710F06FEF690FE62FF0E0EF50FE4FC2
:100770009489890F80680C942903CF92DF92EF92BD
:10078000FF921F93CF93DF93EC0188858B7F88873F
:10079000CE010E940A02182F88858695817018174D
:1007A00059F00E94ED066A837B838C839D83988534
:1007B00082E0892788872AC00E94ED06CA80DB80F4
:1007C000EC80FD80AB01BC014C195D096E097F090D
:1007D0008E819F81A0E0B0E0481759076A077B0728
:1007E000A8F088858170181789F00E94ED066A8349
:1007F0007B838C839D83988581E0892784608887AB
:100800000E94ED066A877B878C879D87888582FB9F
:10081000882780F9DF91CF911F91FF90EF90DF90B3
:10082000CF900895CF92DF92EF92FF9297FF18C07A
:100830006B017C0141E06DE281EF91E00E94D0020A
:1008400066277727CB016C197D098E099F094AE03D
:100850000E9441030196FF90EF90DF90CF900895A2
:100860004AE0FF90EF90DF90CF900C9441038F927D
:100870009F92AF92BF92CF92DF92EF92FF920F932F
:100880001F93CF93DF936B017C01142F9B01AC016D
:100890000E948F11882319F081EC91E027C0460156
:1008A0005701E894B7F82FEF3FEF4FE75FE7C50137
:1008B000B4010E948F1181110DC02FEF3FEF4FE760
:1008C0005FE7C501B4010E94BE0F18161CF485EC49
:1008D00091E00CC02FEF3FEF4FE75FE4C701B60197
:1008E0000E941D11181684F489EC91E0DF91CF91DC
:1008F0001F910F91FF90EF90DF90CF90BF90AF903E
:100900009F908F900C942F032FEF3FEF4FE75FECFA
:10091000C701B6010E94BE0F87FDE6CF20E030E0A0
:10092000A901C701B6010E94BE0F87FF0DC041E0BB
:100930006DE281EF91E00E94D002F7FAF094F7F8AF
:10094000F094C1E0D0E002C0C0E0D0E000E060E0A0
:1009500070E080E09FE3101741F020E030E040E2DB
:1009600051E40E94C30F0F5FF6CFA70196010E94CA
:10097000520F6B017C010E943C104B015C014AE06C
:100980000E944103C80FD91F1123B9F1C501B40159
:100990000E946B109B01AC01C701B6010E94510F70
:1009A0006B017C0141E06EE281EF91E00E94D00298
:1009B000219620E030E040E251E4C701B6010E94F8
:1009C00022114B015C010E943C106B01E12CF12CC7
:1009D0004AE0C701B6010E944103C80FD91FC701F1
:1009E000B6010E946B109B01AC01C501B4010E94CD
:1009F000510F6B017C011150E1F6CE01DF91CF91D7
:100A00001F910F91FF90EF90DF90CF90BF90AF902C
:100A10009F908F900895CF93DF93282F30E0F901B6
:100A2000EC54FF4F8491F901E056FF4FD491F90146
:100A3000E457FF4FC491CC2391F081110E9404062A
:100A4000EC2FF0E0EE0FFF1FEE57FF4FA591B49192
:100A5000EC91ED2381E090E021F480E002C080E0A1
:100A600090E0DF91CF9108951F93CF93DF93282FCC
:100A700030E0F901EC54FF4F8491F901E056FF4F4B
:100A8000D491F901E457FF4FC491CC23C1F0162F44
:100A900081110E940406EC2FF0E0EE0FFF1FE858D2
:100AA000FF4FA591B4919FB7F894111104C08C9198
:100AB000D095D82302C0EC91DE2BDC939FBFDF9151
:100AC000CF911F910895CF93DF93823028F09091BA
:100AD0000002986090930002809304021092050235
:100AE00080E48093060280E18093070280E5809392
:100AF000080261E08091F5010E942D068091F601C7
:100B00008F3F19F061E00E942D0661E08091F701AE
:100B10000E942D06C1EFD1E09E01215F31408091FE
:100B2000000284FD03C084E090E002C088E090E011
:100B30002196281739072CF461E08E810E942D063A
:100B4000EBCF8BE39DE00197F1F760E08091F50139
:100B50000E94340560E08091F7010E943405809185
:100B6000F6018F3F19F060E00E9434058091000289
:100B700084FD20C063E081EF91E00E94A302CBE4FA
:100B8000D6E4CE010197F1F763E081EF91E00E9496
:100B9000A3022197F1F763E081EF91E00E94A302A5
:100BA00083E592E00197F1F762E081EF91E00E9426
:100BB000A30215C080620E9429038BE496E401978A
:100BC000F1F78091000280620E94290383E592E0A0
:100BD0000197F1F78091000280620E9429038091C1
:100BE000000280620E94290384E0809301028CE06D
:100BF0000E9429030E94820382E08093020286E021
:100C0000DF91CF910C942903833081F028F4813057
:100C100099F08230A1F008958730A9F08830B9F0BA
:100C20008430D1F4809180008F7D03C0809180005A
:100C30008F7780938000089584B58F7702C084B544
:100C40008F7D84BD08958091B0008F7703C080911F
:100C5000B0008F7D8093B0000895CF93DF9390E034
:100C6000FC01E056FF4F2491FC01E457FF4F8491B3
:100C7000882361F190E0880F991FFC01E853FF4F32
:100C8000C591D491FC01E858FF4FA591B491611131
:100C900009C09FB7F8948881209582238883EC91BE
:100CA0002E230BC0623061F49FB7F8948881322FF5
:100CB000309583238883EC912E2B2C939FBF06C005
:100CC0008FB7F894E8812E2B28838FBFDF91CF91C7
:100CD00008951F93CF93DF93182FEB0161E00E94DB
:100CE0002D06209711F460E004C0CF3FD10539F400
:100CF00061E0812FDF91CF911F910C943405E12F9A
:100D0000F0E0EC54FF4FE491E330F9F048F4E130C7
:100D1000B9F0E230A1F584B5806284BDC8BD34C0AD
:100D2000E730E9F0E83019F1E43049F580918000CE
:100D3000806280938000D0938B00C0938A0024C08F
:100D400084B5806884BDC7BD1FC080918000806865
:100D500080938000D0938900C093880015C0809153
:100D6000B00080688093B000C093B3000DC0809144
:100D7000B00080628093B000C093B40005C0C0385A
:100D8000D1050CF0B5CFAFCFDF91CF911F91089572
:100D90003FB7F8948091460290914702A091480293
:100DA000B091490226B5A89B05C02F3F19F00196C6
:100DB000A11DB11D3FBFBA2FA92F982F8827820FE1
:100DC000911DA11DB11DBC01CD0142E0660F771F31
:100DD000881F991F4A95D1F708952FB7F89460910D
:100DE00042027091430280914402909145022FBFCC
:100DF00008951F920F920FB60F9211242F933F93D5
:100E00008F939F93AF93BF9380914202909143023F
:100E1000A0914402B09145023091410223E0230F9A
:100E20002D3720F40196A11DB11D05C026E8230F22
:100E30000296A11DB11D209341028093420290931E
:100E40004302A0934402B0934502809146029091E0
:100E50004702A0914802B09149020196A11DB11D1F
:100E60008093460290934702A0934802B0934902B0
:100E7000BF91AF919F918F913F912F910F900FBE96
:100E80000F901F901895789484B5826084BD84B5C6
:100E9000816084BD85B5826085BD85B5816085BD75
:100EA00080916E00816080936E001092810080912D
:100EB00081008260809381008091810081608093B5
:100EC0008100809180008160809380008091B100DA
:100ED00084608093B1008091B00081608093B00005
:100EE00080917A00846080937A0080917A00826099
:100EF00080937A0080917A00816080937A0080915B
:100F00007A00806880937A001092C10061E089E0E5
:100F10000E942D0660E088E00E942D0660E08CE0D3
:100F20000E942D0660E08DE00E942D0660E081E0C9
:100F30000E942D0661E070E083E392E00E948A0344
:100F4000C9E1D0E0D0933A02C093390268E070E082
:100F500085E292E00E948A03D0932C02C0932B0278
:100F60006CE070E087E192E00E948A03D0931E0259
:100F7000C0931D026DE070E089E092E00E948A0358
:100F8000D0931002C0930F0280E090E0A8EBB1E490
:100F90008093DE019093DF01A093E001B093E10123
:100FA00061E08AE00E942D0661E08BE00E942D0640
:100FB00061E080E00E942D0660E070E08AE00E941F
:100FC000690660E070E08BE00E94690660910801AC
:100FD00080E00E94340582E00E94630588248394A7
:100FE000912CAA24A394B12C07E010E0C1E0D0E03A
:100FF000E6E02E2E312CE091EF01F091F001E83087
:10100000F10508F097C6EC5CFF4F0C94A8110E9404
:1010100082038091EF019091F001892B09F08AC63B
:101020000E9434020E94240260E080E00E94AB0330
:101030008EE191E00E94A9030E94C8062B013C01A9
:1010400074E6C72ED12CE12CF12C0E94C806DC01DD
:10105000CB0184199509A609B709883E9340A105DB
:10106000B10598F321E0C21AD108E108F10888EE31
:10107000480E83E0581E611C711CC114D104E104A8
:10108000F10419F76091DE017091DF018091E001B8
:101090009091E10141E00E94370464E6E62EF12CD4
:1010A000412C512C320180E480937C0080917A00A5
:1010B000806480937A0080917A0086FDFCCF6091F5
:1010C00078008091790070E0782B072E000C880B57
:1010D000990B0E946D1020E030E040EA50E40E943D
:1010E000221120E030EC4FE754E40E94C30F2AE0C5
:1010F00037ED43E25CE30E94C30F9B01AC01C301E7
:10110000B2010E94520F2B013C0121E0E21AF108CA
:1011100051F620E030E048EC52E40E94C30F6093A7
:10112000DA017093DB018093DC019093DD0161E0D3
:1011300080E00E94AB0383E291E00E94A9036091EA
:10114000DA017091DB018091DC019091DD0141E0D9
:101150000E943704E0900801F09009016E2D80E0B4
:101160000E9434058091E201882319F00E94DC007E
:1011700002C00E943F01E114F10479F460E08AE0CA
:101180000E94AB0388E291E00E94A90361E08CE039
:101190000E94AB038FE291E029C0EA94EF2841F569
:1011A0008091E7019091E801892B11F58091E5018B
:1011B0009091E601892BE1F48091ED019091EE018F
:1011C000892BB1F48091E9019091EA01892B81F496
:1011D00060E08AE00E94AB0388E291E00E94A903EC
:1011E00061E08CE00E94AB0383E391E00E94A903DD
:1011F00080910801909109018130910569F4209155
:10120000E7013091E8012130310531F42091E50109
:101210003091E601232B39F02091E9013091EA0168
:101220002130310539F460E08CE00E94AB0387E3A4
:1012300091E01AC0019761F48091E5019091E60177
:10124000019731F48091E7019091E801892B31F009
:101250008091ED019091EE01019781F460E08CE0C6
:101260000E94AB038CE391E00E94A90361E08CE053
:101270000E94AB0383E391E00E94A9030E94200235
:10128000882309F4C6CE9092F0018092EF01C1CE7E
:101290000E94820352E0E52EF12C8091EF019091A3
:1012A000F001019709F046C50E9434020E94240211
:1012B00060E080E00E94AB0381E491E00E94A9031A
:1012C00061E080E00E94AB038EE191E00E94A903FF
:1012D0006091DE017091DF018091E0019091E10168
:1012E00041E00E9437040E941C02882309F45EC07A
:1012F00061E088E00E94AB038FE491E00E94A903C3
:101300000E9424020E9418028823B1F020E030E0FD
:1013100040E85FE36091DE017091DF018091E001C0
:101320009091E1010E94520F6093DE017093DF0102
:101330008093E0019093E1010E9414028823B1F0B0
:1013400020E030E040E85FE36091DE017091DF0172
:101350008091E0019091E1010E94510F6093DE01C4
:101360007093DF018093E0019093E10161E080E000
:101370000E94AB038EE191E00E94A9036091DE011F
:101380007091DF018091E0019091E10141E00E94C4
:1013900037040E941C02882309F4B2CF61E088E080
:1013A0000E94AB0387E991E00E94A9030E942002FA
:1013B000882309F472CFF092F001E092EF016DCF33
:1013C0000E94820343E0E42EF12C8091EF01909182
:1013D000F001029709F0AEC40E9434020E94240278
:1013E00060E080E00E94AB0381E591E00E94A903E8
:1013F00061E080E00E94AB0382E691E00E94A903D5
:1014000060910001709101018091020190910301AE
:1014100041E00E9437040E941C02882309F456C050
:101420000E9424020E9418028823B1F020E030E0DC
:1014300040E85FE360910001709101018091020139
:10144000909103010E94520F60930001709301017B
:1014500080930201909303010E941402882391F06B
:1014600040900001509001016090020170900301D2
:1014700020E030E0A901C301B2010E941D1118163D
:101480000CF460C461E088E00E94AB038FE491E05B
:101490000E94A90361E084E00E94AB036091000117
:1014A00070910101809102019091030141E00E943D
:1014B00037040E941C02882309F4B2CF61E088E05F
:1014C0000E94AB0387E991E00E94A9030E942002D9
:1014D000882309F47ACFF092F001E092EF0175CF02
:1014E0000E94820334E0E32EF12C8091EF01909171
:1014F000F001039709F01EC40E9434020E942402E6
:1015000060E080E00E94AB0387E691E00E94A903BF
:1015100061E080E00E94AB0382E691E00E94A903B3
:10152000609104017091050180910601909107017D
:1015300041E00E9437040E941C02882309F456C02F
:101540000E9424020E9418028823B1F020E030E0BB
:1015500040E85FE36091040170910501809106010C
:10156000909107010E94520F60930401709305014E
:1015700080930601909307010E941402882391F042
:1015800040900401509005016090060170900701A1
:1015900020E030E0A901C301B2010E941D1118161C
:1015A0000CF4E1C361E088E00E94AB038FE491E0BA
:1015B0000E94A90361E084E00E94AB0360910401F2
:1015C00070910501809106019091070141E00E9410
:1015D00037040E941C02882309F4B2CF61E088E03E
:1015E0000E94AB0387E991E00E94A9030E942002B8
:1015F000882309F47ACFF092F001E092EF0175CFE1
:101600000E94820325E0E22EF12C8091EF0190915F
:10161000F001049709F08EC30E9434020E94240254
:101620006091080180E00E9434058091E2018823E6
:1016300019F00E94DC0002C00E943F0160E082E0DD
:101640000E94AB0388E791E00E94A9038091E20128
:1016500061E0882331F087E00E94AB0383E391E0EF
:1016600005C087E00E94AB038FE291E00E94A903CE
:101670000E941C028823D9F161E08AE00E94AB033A
:101680008FE491E00E94A903DD24D3940E942402F8
:101690000E941802882329F08091E201882309F42E
:1016A00073C30E941402882321F08091E20181110A
:1016B0006EC38091E20161E0882331F087E00E94EF
:1016C000AB0383E391E005C087E00E94AB038FE2A8
:1016D00091E00E94A9030E941C028823B9F261E0F4
:1016E0008AE00E94AB0387E991E00E94A903809100
:1016F000E201882351F00E942002882309F485CF5B
:10170000F092F001E092EF0180CF0E942002882346
:1017100009F47BCF1093F0010093EF0176CF0E9484
:1017200082038091EF019091F001059709F002C3C7
:101730000E9434020E94240260E082E00E94AB0317
:1017400088E791E00E94A90361E080E00E94AB037A
:1017500084E891E00E94A9038091E9019091EA0157
:101760008130910591F561E086E00E94AB0383E34F
:1017700091E00E94A90361E08BE00E94AB036091BD
:10178000E3017091E401072E000C880B990B0E9475
:1017900012048091E3019091E40161E084369105A7
:1017A00031F48EE00E94AB038BE891E01EC00A97F3
:1017B00034F08DE00E94AB038DE891E016C08CE020
:1017C0000E94AB0380E991E010C0892B81F461E0B5
:1017D00086E00E94AB038FE291E00E94A90361E0E2
:1017E0008BE00E94AB0384E991E00E94A9030E9470
:1017F0001C02882309F4D1C061E089E00E94AB0398
:101800008FE491E00E94A903EE24E394F12C21E0FF
:10181000E216F10409F0C1C00E9424020E941802DD
:10182000882369F08091ED019091EE01892B39F4C4
:101830008091E5019091E601892B09F4B3C20E94E1
:101840001402882341F01092EA011092E9011092EB
:10185000E8011092E7018091E9019091EA0181305D
:10186000910539F461E086E00E94AB0383E391E0E7
:1018700010C0892B81F461E086E00E94AB038FE207
:1018800091E00E94A90361E08BE00E94AB0384E930
:1018900091E00E94A9030E941C02882309F4BCCF96
:1018A0008091E9019091EA01019709F064C00E94DA
:1018B00024020E941802882361F08091E301909134
:1018C000E401843691052CF405969093E40180930D
:1018D000E3010E941402882361F08091E30190915A
:1018E000E401181619062CF405979093E4018093EF
:1018F000E30161E089E00E94AB0389E991E00E9485
:10190000A90361E08BE00E94AB036091E301709159
:10191000E401072E000C880B990B0E9412048091A1
:10192000E3019091E40161E08436910531F48EE0A9
:101930000E94AB038BE891E00DC00A9734F08DE074
:101940000E94AB038DE891E005C08CE00E94AB03E0
:1019500080E991E00E94A9030E941C02882309F4F7
:10196000A6CF61E089E00E94AB0387E991E00E9485
:10197000A903E12CF12C8091E9019091EA01892BD6
:1019800009F045CF61E089E00E94AB0387E991E06F
:101990000E94A903E12CF12C3ACF0E942002882357
:1019A00009F4BFCE3092F0012092EF01BACE0E942E
:1019B00082038091EF019091F001069709F0BAC17E
:1019C0000E9434020E94240260E082E00E94AB0385
:1019D00088E791E00E94A90361E080E00E94AB03E8
:1019E0008BE991E00E94A9038091ED019091EE01B5
:1019F00081309105B1F561E085E00E94AB0383E39E
:101A000091E00E94A90361E08AE00E94AB0360912B
:101A1000EB017091EC01072E000C880B990B0E94D2
:101A2000120461E08DE00E94AB038091EB01909184
:101A3000EC0161E08436910531F48DE00E94AB0346
:101A40008BE891E01EC00A9734F08CE00E94AB0353
:101A50008DE891E016C08BE00E94AB0380E991E035
:101A600010C0892B81F461E085E00E94AB038FE216
:101A700091E00E94A90361E08AE00E94AB0384E93F
:101A800091E00E94A9030E941C02882309F4D1C09E
:101A900061E088E00E94AB038FE491E00E94A9031B
:101AA000EE24E394F12C81E0E816F10409F0C1C0C2
:101AB0000E9424020E941802882369F08091E901A3
:101AC0009091EA01892B39F48091E7019091E80126
:101AD000892B09F46CC10E941402882341F01092F2
:101AE000EE011092ED011092E6011092E501809155
:101AF000ED019091EE018130910539F461E085E0CE
:101B00000E94AB0383E391E010C0892B81F461E074
:101B100085E00E94AB038FE291E00E94A90361E09F
:101B20008AE00E94AB0384E991E00E94A9030E942D
:101B30001C02882309F4BCCF8091ED019091EE0145
:101B4000019709F064C00E9424020E9418028823B1
:101B500061F08091EB019091EC01843691052CF4B9
:101B600005969093EC018093EB010E941402882368
:101B700061F08091EB019091EC01181619062CF49C
:101B800005969093EC018093EB0161E088E00E9460
:101B9000AB0389E991E00E94A90361E08AE00E9419
:101BA000AB036091EB017091EC01072E000C880BE8
:101BB000990B0E9412048091EB019091EC0161E07D
:101BC0008436910531F48DE00E94AB038BE891E0FF
:101BD0000DC00A9734F08CE00E94AB038DE891E0D1
:101BE00005C08BE00E94AB0380E991E00E94A9034D
:101BF0000E941C02882309F4A6CF61E088E00E94BD
:101C0000AB0387E991E00E94A903E12CF12C8091BC
:101C1000ED019091EE01892B09F045CF61E088E05C
:101C20000E94AB0387E991E00E94A903E12CF12C0B
:101C30003ACF0E942002882309F4BBCE1093F00112
:101C40000093EF01B6CE0E9482038091EF01909144
:101C5000F001079709F06EC00E94240260E082E064
:101C60000E94AB0381EA91E00E94A90380910801E0
:101C7000909109018130910539F461E084E00E947E
:101C8000AB038FEA91E008C0892B41F461E084E066
:101C90000E94AB0388EB91E00E94A9030E941C0202
:101CA0008823F1F10E9424020E941802882321F067
:101CB000B0920901A09208010E941402882321F029
:101CC000109209011092080161E08CE00E94AB03C0
:101CD0008FE491E00E94A90380910801909109018D
:101CE0008130910539F461E084E00E94AB038FEA12
:101CF00091E008C0892B41F461E084E00E94AB03CD
:101D000088EB91E00E94A9030E941C02882351F2F3
:101D100061E08CE00E94AB0387E991E00E94A90397
:101D20000E942002882309F490CF1092F0011092B3
:101D3000EF018BCF80E090E0892B09F45CC90E9411
:101D4000000056C920E030E040E85FE3C301B20183
:101D50000E94510F60930001709301018093020172
:101D6000909303018FCB20E030E040E85FE3C301B4
:101D7000B2010E94510F609304017093050180939A
:101D80000601909307010ECCD092E2018ACC10920A
:101D9000E2011092EA011092E9011092EE01109214
:101DA000ED0187CCD093EA01C093E90148CDD093EF
:101DB000EE01C093ED018FCEE1EFF1E013821282CC
:101DC0008EE091E09183808387E084838FEF858329
:101DD00086E0868385E0878384E0808783E081874F
:101DE00082E082871386148615861686178681E020
:101DF0000E946305E3E3F2E02AE131E031832083CE
:101E000012821382148215828AE090E0978386837F
:101E100010861186E5E2F2E031832083128213827C
:101E2000148215829783868310861186E7E1F2E09B
:101E300031832083128213821482158297838683D2
:101E400010861186E9E0F2E031832083128213824A
:101E50001482158297838683108611860895A1E2E5
:101E60001A2EAA1BBB1BFD010DC0AA1FBB1FEE1F14
:101E7000FF1FA217B307E407F50720F0A21BB30B5F
:101E8000E40BF50B661F771F881F991F1A9469F7DB
:101E900060957095809590959B01AC01BD01CF0137
:101EA00008955058BB27AA270E94690F0C94E3108D
:101EB0000E94D51038F00E94DC1020F039F49F3FCA
:101EC00019F426F40C94D2100EF4E095E7FB0C9470
:101ED000CC10E92F0E94F41058F3BA176207730769
:101EE0008407950720F079F4A6F50C9416110EF4EA
:101EF000E0950B2EBA2FA02D0B01B90190010C011A
:101F0000CA01A0011124FF27591B99F0593F50F431
:101F1000503E68F11A16F040A22F232F342F442789
:101F2000585FF3CF469537952795A795F040539581
:101F3000C9F77EF41F16BA0B620B730B840BBAF051
:101F40009150A1F0FF0FBB1F661F771F881FC2F7BC
:101F50000EC0BA0F621F731F841F48F487957795D0
:101F60006795B795F7959E3F08F0B0CF9395880F8A
:101F700008F09927EE0F9795879508950E94A8106D
:101F800008F481E008950E94D70F0C94E3100E949A
:101F9000DC1058F00E94D51040F029F45F3F29F082
:101FA0000C94CC1051110C9417110C94D2100E9467
:101FB000F41068F39923B1F3552391F3951B550B56
:101FC000BB27AA2762177307840738F09F5F5F4F0C
:101FD000220F331F441FAA1FA9F335D00E2E3AF04B
:101FE000E0E832D091505040E695001CCAF72BD063
:101FF000FE2F29D0660F771F881FBB1F26173707B4
:102000004807AB07B0E809F0BB0B802DBF01FF27E5
:1020100093585F4F3AF09E3F510578F00C94CC10E6
:102020000C9417115F3FE4F3983ED4F386957795AF
:102030006795B795F7959F5FC9F7880F911D96959E
:10204000879597F90895E1E0660F771F881FBB1FFA
:10205000621773078407BA0720F0621B730B840BA7
:10206000BA0BEE1F88F7E09508950E943C10689423
:10207000B1110C94171108950E94FC1088F09F571D
:1020800098F0B92F9927B751B0F0E1F0660F771F9C
:10209000881F991F1AF0BA95C9F714C0B13091F092
:1020A0000E941611B1E008950C941611672F782F35
:1020B0008827B85F39F0B93FCCF386957795679557
:1020C000B395D9F73EF490958095709561957F4FC3
:1020D0008F4F9F4F0895E89409C097FB3EF4909569
:1020E0008095709561957F4F8F4F9F4F9923A9F0F1
:1020F000F92F96E9BB279395F69587957795679580
:10210000B795F111F8CFFAF4BB0F11F460FF1BC0C3
:102110006F5F7F4F8F4F9F4F16C0882311F096E956
:1021200011C0772321F09EE8872F762F05C0662304
:1021300071F096E8862F70E060E02AF09A95660FBD
:10214000771F881FDAF7880F9695879597F9089576
:10215000990F0008550FAA0BE0E8FEEF16161706B8
:10216000E807F907C0F012161306E407F50798F020
:10217000621B730B840B950B39F40A2661F0232B39
:10218000242B252B21F408950A2609F4A140A695B5
:102190008FEF811D811D089597F99F6780E870E09A
:1021A00060E008959FEF80EC089500240A941616CD
:1021B000170618060906089500240A941216130635
:1021C000140605060895092E0394000C11F48823C3
:1021D00052F0BB0F40F4BF2B11F460FF04C06F5FDF
:1021E0007F4F8F4F9F4F089557FD9058440F551FB5
:1021F00059F05F3F71F04795880F97FB991F61F089
:102200009F3F79F087950895121613061406551FFF
:10221000F2CF4695F1DF08C0161617061806991F6B
:10222000F1CF86957105610508940895E894BB2760
:1022300066277727CB0197F908950E94A81008F424
:102240008FEF08950E9435110C94E3100E94D51071
:1022500038F00E94DC1020F0952311F00C94CC1083
:102260000C94D21011240C9417110E94F41070F3E6
:10227000959FC1F3950F50E0551F629FF001729F2B
:10228000BB27F00DB11D639FAA27F00DB11DAA1F3A
:10229000649F6627B00DA11D661F829F2227B00D87
:1022A000A11D621F739FB00DA11D621F839FA00D12
:1022B000611D221F749F3327A00D611D231F849F62
:1022C000600D211D822F762F6A2F11249F575040B9
:1022D0009AF0F1F088234AF0EE0FFF1FBB1F661F34
:1022E000771F881F91505040A9F79E3F510580F0FD
:1022F0000C94CC100C9417115F3FE4F3983ED4F388
:10230000869577956795B795F795E7959F5FC1F7A0
:10231000FE2B880F911D9695879597F908950E9439
:10232000A810880B990B089597FB072E16F40094BC
:1023300007D077FD09D00E94B71107FC05D03EF405
:10234000909581959F4F0895709561957F4F089561
:10235000EE0FFF1F0590F491E02D09942A193B0917
:102360004C095D096E097F09800B910B0895AA1B2A
:10237000BB1B51E107C0AA1FBB1FA617B70710F070
:10238000A61BB70B881F991F5A95A9F780959095A2
:10239000BC01CD01089581E090E0F8940C94D01137
:0423A000F894FFCFDF
:1023A4000000803F0000803F010000000000230384
:1023B4009400BF00BE00000000000A02D800535081
:1023C4003A200050563A2000447269766572004FF4
:1023D4004646004F4E2000486561740046616E20F9
:1023E400004E65772053657420506F696E74003C0D
:1023F400004E65772050726F702E204761696E2001
:1024040048004B703A20004E65772050726F702E52
:10241400204761696E2046004D616E75616C204DE8
:102424006F646500486561743A200025002520002A
:102434002520200020202020003E0046616E3A2006
:102444000044726976657220537461747573004533
:102454006E61626C6564200044697361626C6564DA
:0E246400006E616E00696E66006F76660000A5
:00000001FF
